:100000000C9444000C948D0A0C948D0A0C948D0A67
:100010000C948D0A0C948D0A0C948D0A0C948D0A04
:100020000C948D0A0C948D0A0C948D0A0C948D0AF4
:100030000C948D0A0C948D0A0C948D0A0C948D0AE4
:100040000C948D0A0C948D0A0C948D0A0C948D0AD4
:100050000C948D0A58085B085E0861084F08520826
:1000600055086108640849084C0861086108460899
:10007000A208A508A208B108A208B108A208A2080F
:10008000B108A208B108A20811241FBECFE5D8E02C
:10009000DEBFCDBF0E9483060C944E00F894FFCFC4
:1000A000486F75723A202564004D696E7574653A23
:1000B000202564005365636F6E643A202564004117
:1000C0004D203D203120504D203D2032004D6F6E9F
:1000D00074683A2025303264004461793A20253032
:1000E000326400596561723A20253034640025304D
:1000F00032642F253032642F2530346420002530BF
:1001000032643A253032643A2530326420414D0061
:10011000253032643A253032643A2530326420503A
:0F0120004D0025303464203A2025303264200011
:100130002F923F924F926F927F928F929F92AF92A7
:10014000BF92CF92DF92EF92FF920F931F93CF93C4
:10015000DF93CDB7DEB762970FB6F894DEBF0FBE60
:10016000CDBF6C013A01862E7901FC011086178201
:10017000848181FFE7C19E012F5F3F4F3D872C8720
:10018000C901A0E8888B998BAA8B9FE3992EF30174
:10019000849187FC8081882309F4D0C1482D930184
:1001A0002F5F3F4F4F4F853219F03901842E0AC01F
:1001B000F901849147FD808192E0690E711C811CD8
:1001C000853229F4B60190E00E947007E0CFB12C8F
:1001D00000E010E01032A0F48B3269F030F480328D
:1001E00059F0833269F410612CC08D3239F08033BC
:1001F00039F4116026C01260146023C0186021C059
:1002000017FD29C090ED980F9A3078F416FF06C0BC
:10021000AAE0BA9E900D1124B92E13C0EAE00E9FF9
:10022000900D1124092F10620CC08E3221F416FD9E
:1002300085C1106406C08C3611F4106802C088367F
:1002400051F4F301849187FC8081FFEF6F1A7F0ADC
:100250008F0A8111BFCF982F9F7D9554933028F43A
:1002600024E0E20EF11C99820FC0833631F083370F
:1002700091F0833509F063C027C0F701808189833D
:1002800097012E5F3F4F7901288839884A88AA2430
:10029000A394B12C17C0A7014D5F5F4F5F874E87B6
:1002A000F70120803180428016FF03C04B2D50E0C3
:1002B00002C04FEF5FEF842DB1010E9451095C0134
:1002C000EE84FF841F7718C097012D5F3F4F3F8753
:1002D0002E87F70120803180428016FF03C04B2D0E
:1002E00050E002C04FEF5FEF842DB1010E94510931
:1002F0005C011068EE84FF8413FD1DC0802F90E028
:10030000A816B906C0F4B60180E290E00E9470071A
:100310000150F4CFF101849147FC8081FFEF2F1A47
:100320003F0A4F0AB60190E00E9470070111015088
:1003300021E0A21AB108A114B10461F7F5C0843616
:1003400011F0893671F5F70117FF08C060817181DE
:100350008281938197012C5F3F4F09C06081718139
:10036000072E000C880B990B97012E5F3F4F7901E8
:100370001F76312E97FF0AC09095809570956195F4
:100380007F4F8F4F9F4F312F3068332E2AE030E060
:10039000AE014F5F5F4F0E942506482E4C85441AE0
:1003A0004AC0853729F41F7EA12E2AE030E025C0FF
:1003B000512F597FA52E8F36C1F018F4883579F06A
:1003C000BDC0803719F0883721F0B8C0852F806113
:1003D000A82EA4FE0DC09A2D9460A92E09C014FF6A
:1003E0000AC0A52FA660AA2E06C028E030E005C0EE
:1003F00020E130E002C020E132E0F701A7FE08C0B2
:100400006081718182819381A7014C5F5F4F07C03A
:100410006081718180E090E0A7014E5F5F4F7A01BB
:10042000AE014F5F5F4F0E942506482E5C85451A3E
:100430008A2D8F77382E36FE0DC0932D9E7FA92EE4
:100440004B1458F434FE0BC032FC09C0A32DAE7E11
:10045000AA2E05C0142DA32C03C0142D01C01B2DE2
:10046000A4FE0EC0FE01E40DF11D8081803321F455
:10047000EA2DE97EAE2E08C0A2FE05C01E5F04C0B4
:100480008A2D867809F01F5FA3FC11C0A0FE06C06C
:10049000101788F4040DB02EB11A0EC0101760F4B6
:1004A000B60180E290E00E9470071F5FF7CF10173F
:1004B00018F4011B02C0B42C00E0A4FE10C0B60169
:1004C00080E390E00E947007A2FE17C0A1FC03C069
:1004D00088E790E002C088E590E0B6010CC08A2D64
:1004E000867859F0A1FE02C08BE201C080E2A7FC31
:1004F0008DE2B60190E00E9470074B1438F4B6010B
:1005000080E390E00E947007BA94F7CF4A94E1E04C
:10051000F0E0EC0FFD1FE40DF11D8081B60190E0CD
:100520000E9470074110F2CF002309F430CEB601CB
:1005300080E290E00E9470070150F6CFF6018781BB
:10054000908502C08FEF9FEF62960FB6F894DEBFE2
:100550000FBECDBFDF91CF911F910F91FF90EF9014
:10056000DF90CF90BF90AF909F908F907F906F90D3
:080570004F903F902F90089579
:10057800CF92DF92EF92FF920F931F93CF93DF9367
:10058800CDB7DEB764970FB6F894DEBF0FBECDBF08
:100598007C0184EF91E00E94170ACC24CA94DC2CD9
:1005A80040C001151105E9F1C8010E94EB09892B2A
:1005B800A1F1C8010E943D082FEFC216D20671F0C2
:1005C8009601220F331FCC0CDD1CCC0CDD1CCC0C8F
:1005D800DD1CC20ED31EC80ED91E01C06C01DF92ED
:1005E800CF928DEC90E0A0E0AF939F938F938E0114
:1005F8000F5F1F4F1F930F930E94B7080E94850A31
:1006080060E080E00E94D309B80180E80E943609C2
:100618000FB6F894DEBF0FBECDBF88EE93E00E9400
:10062800170A0E9467088C01049709F0BACFC6011F
:100638006CE070E00E942B0AF7019383828384EFB9
:1006480091E00E94170ACC24CA94DC2C40C0011502
:100658001105E9F1C8010E94EB09892BA1F1C80134
:100668000E943D08FFEFCF16DF0671F09601220FBA
:10067800331FCC0CDD1CCC0CDD1CCC0CDD1CC20EDD
:10068800D31EC80ED91E01C06C01DF92CF9289ED2E
:1006980090E0A0E0AF939F938F938E010F5F1F4F61
:1006A8001F930F930E94B7080E94850A60E080E0BC
:1006B8000E94D309B80180E80E9436090FB6F89461
:1006C800DEBF0FBECDBF88EE93E00E94170A0E94DE
:1006D80067088C01049709F0BACFF701D582C48264
:1006E80084EF91E00E94170ACC24CA94DC2C40C005
:1006F80001151105E9F1C8010E94EB09892BA1F147
:10070800C8010E943D08FFEFCF16DF0671F0960181
:10071800220F331FCC0CDD1CCC0CDD1CCC0CDD1CDB
:10072800C20ED31EC80ED91E01C06C01DF92CF9233
:1007380083EE90E0A0E0AF939F938F938E010F5FBD
:100748001F4F1F930F930E94B7080E94850A60E00D
:1007580080E00E94D309B80180E80E9436090FB6EC
:10076800F894DEBF0FBECDBF88EE93E00E94170A53
:100778000E9467088C01049709F0BACFF701D1826B
:10078800C08204811581B70180E80E948F08BC01EE
:10079800C8010E942B0AF7019583848364960FB6DB
:1007A800F894DEBF0FBECDBFDF91CF911F910F919F
:0A07B800FF90EF90DF90CF900895BE
:1007C200CF92DF92EF92FF920F931F93CF93DF931B
:1007D200CDB7DEB764970FB6F894DEBF0FBECDBFBC
:1007E2006C0184EF91E00E94170AEE24EA94FE2C39
:1007F20040C001151105E9F1C8010E94EB09892BDE
:10080200A1F1C8010E943D082FEFE216F20671F035
:100812009701220F331FEE0CFF1CEE0CFF1CEE0C97
:10082200FF1CE20EF31EE80EF91E01C07C01FF92CE
:10083200EF9280EA90E0A0E0AF939F938F938E01B6
:100842000F5F1F4F1F930F930E94B7080E94850AE4
:1008520060E080E00E94D309B80180E80E94360976
:100862000FB6F894DEBF0FBECDBF88EE93E00E94B4
:10087200170A0E9467088C01049709F0BACF9FEF0C
:10088200E916F90619F0F601F782E68284EF91E0A3
:100892000E94170AEE24EA94FE2C40C001151105AD
:1008A200E9F1C8010E94EB09892BA1F1C8010E945C
:1008B2003D08FFEFEF16FF0671F09701220F331F7D
:1008C200EE0CFF1CEE0CFF1CEE0CFF1CE20EF31EE6
:1008D200E80EF91E01C07C01FF92EF9289EA90E0D6
:1008E200A0E0AF939F938F938E010F5F1F4F1F93D3
:1008F2000F930E94B7080E94850A60E080E00E9480
:10090200D309B80180E80E9436090FB6F894DEBF19
:100912000FBECDBF88EE93E00E94170A0E946708BF
:100922008C01049709F0BACF9FEFE916F90619F086
:10093200F601F186E08684EF91E00E94170AEE2428
:10094200EA94FE2C40C001151105E9F1C8010E948C
:10095200EB09892BA1F1C8010E943D08FFEFEF16B8
:10096200FF0671F09701220F331FEE0CFF1CEE0CF5
:10097200FF1CEE0CFF1CE20EF31EE80EF91E01C076
:100982007C01FF92EF9284EB90E0A0E0AF939F9303
:100992008F938E010F5F1F4F1F930F930E94B70813
:1009A2000E94850A60E080E00E94D309B80180E8D5
:1009B2000E9436090FB6F894DEBF0FBECDBF88EE97
:1009C20093E00E94170A0E9467088C01049709F0BD
:1009D200BACF9FEFE916F90619F0F601F386E2861F
:1009E200C6010E94DA0864960FB6F894DEBF0FBE05
:1009F200CDBFDF91CF911F910F91FF90EF90DF90CC
:040A0200CF900895F4
:100A0600CF92DF92EF92CF93DF93CDB7DEB76197A8
:100A16000FB6F894DEBF0FBECDBF6B01E82E60E0C7
:100A260081E00E94D309AE2DC6010C96A11DFC01E2
:100A36005A2F0E94770A672B09F06AC0AE2DC601AD
:100A46000E96A11DFC015A2F0E94770A672B81F58D
:100A5600AE2DC6010A96A11DFC015A2F0E94770AE7
:100A66007F936F93AE2DC6010896A11DFC015A2FE8
:100A76000E94770A7F936F9326E0C20ED11CE11C79
:100A8600F6015E2D0E94770A7F936F938EEF90E0BA
:100A9600A0E0AF939F938F93CE0101969F938F9380
:100AA6000E94B7080FB6F894DEBF0FBECDBF51C087
:100AB600AE2DC6010A96A11DFC015A2F0E94770A87
:100AC6007F936F93AE2DC6010896A11DFC015A2F88
:100AD6000E94770A7F936F9396E0C90ED11CE11CA2
:100AE600F6015E2D0E94770A7F936F9380E191E075
:100AF600A0E0AF939F938F93CE0101969F938F9320
:100B06000E94B7080FB6F894DEBF0FBECDBF21C056
:100B16008E2DB6010E94E0072AE0C20ED11CE11C10
:100B2600F6015E2D0E94770A7F936F939F938F93B2
:100B360082E291E0A0E0AF939F938F93CE0101965E
:100B46009F938F930E94B7080FB6F894DEBF0FBE2F
:100B5600CDBFBE016F5F7F4F80E80E943609619668
:100B66000FB6F894DEBF0FBECDBFDF91CF91EF90E9
:060B7600DF90CF9008950E
:100B7C00CF92DF92EF92FF920F931F93CF93DF935D
:100B8C00FC01228533852F5F3F4F338722872C331F
:100B9C00310509F04BC0808591850196918780873E
:100BAC0013861286CC9709F041C0EF01068117819C
:100BBC000F5F1F4F17830683118610860C301105AB
:100BCC0071F5E684F784E114F10419F1C480D58041
:100BDC008FEFC81AD80AD582C482BF0180E80E9460
:100BEC008F080196C816D906A1F48A819B810196BB
:100BFC009B838A8321E030E03D832C830D9749F45D
:100C0C0081E090E09B838A83888199810196998306
:100C1C00888381E090E08E199F099F878E870D3025
:100C2C00110521F481E090E09F838E83DF91CF91B9
:0E0C3C001F910F91FF90EF90DF90CF900895E1
:100C4A00FA01AA27283051F1203181F1E8946F93F3
:100C5A006E7F6E5F7F4F8F4F9F4FAF4FB1E03ED099
:100C6A00B4E03CD0670F781F891F9A1FA11D680F37
:100C7A00791F8A1F911DA11D6A0F711D811D911D6A
:100C8A00A11D20D009F468943F912AE0269F1124DF
:100C9A003019305D3193DEF6CF010895462F477043
:100CAA00405D4193B3E00FD0C9F7F6CF462F4F709E
:100CBA00405D4A3318F0495D31FD4052419302D0FC
:100CCA00A9F7EACFB4E0A6959795879577956795A2
:100CDA00BA95C9F700976105710508959B01AC01A2
:100CEA000A2E06945795479537952795BA95C9F7C9
:0C0CFA00620F731F841F951FA01D08953A
:100D0600CF93DF93CDB7DEB760970FB6F894DEBF0B
:100D16000FBECDBF0E948A0A0E940F088E010F5F88
:100D26001F4FC8010E94010AC801A0E8D02EE92E73
:100D3600FA2EBC018A2F0E94E006C8010E94FA081A
:100D46000E94850A6D2D7E2D8F2D0E94E0066D2D49
:100D56007E2D8F2D0E9403050E9467088C01009747
:100D660019F1049761F4CE0101960E94BC02CE01EE
:100D760001960E94E103CE0101960E9433070830D6
:100D8600110521F4CE0101960E94630A0C3011056B
:100D960021F4CE0101960E946D0A0031110521F45D
:100DA600CE0101960E94010A88E493E00E94170A88
:0A0DB600CE0101960E94BE05C3CFD6
:100DC000CF92DF92EF920F931F93CF93DF93CDB724
:100DD000DEB761970FB6F894DEBF0FBECDBF6B01D3
:100DE000E82E60E080E00E94D309F6015E2D0E94AB
:100DF000770A7F936F93AE2DC6010496A11DFC0167
:100E00005A2F0E94770A7F936F9382E0C80ED11CFD
:100E1000E11CF6015E2D0E94770A7F936F938EEEA0
:100E200090E0A0E0AF939F938F938E010F5F1F4FD1
:100E30001F930F930E94B708B80180E80E943609FB
:100E40000FB6F894DEBF0FBECDBF61960FB6F89413
:100E5000DEBF0FBECDBFDF91CF911F910F91EF90FD
:060E6000DF90CF90089521
:100E6600EF92FF920F931F93CF93DF93CDB7DEB729
:100E760064970FB6F894DEBF0FBECDBF8C0184EF2A
:100E860091E00E94170A2EE030E04FEB50E060E060
:100E9600CE0101967C010E94BA090E94850A60E093
:100EA60080E00E94D309B70180E80E9436090E94BB
:100EB600670883309105DCF70197F80197878687E5
:100EC60064960FB6F894DEBF0FBECDBFDF91CF910B
:0A0ED6001F910F91FF90EF90089517
:100EE0000F931F93CF93DF93FB01248121FD03C058
:100EF0008FEF9FEF2CC022FF16C0478150852581C0
:100F000036814217530744F4A081B1819D012F5FC0
:100F10003F4F318320838C93278130852F5F3F4F54
:100F20003087278314C08B01EC01FB010184F2851B
:100F3000E02D0995892BE1F6D80117968D919C91AA
:100F40001897019618969C938E931797CE01DF9170
:080F5000CF911F910F9108954C
:100F5800CF93DF9314BA15BA44B321E030E0F90116
:100F680002C0EE0FFF1F8A95E2F7CF014E2B44BB5C
:100F780095B38095892385BB85B3EB0124960C2E08
:100F880002C0220F331F0A94E2F7282B25BB8AE000
:100F980090E00E94170A83B390E002C09595879568
:100FA800CA95E2F780FD03C081E090E002C080E0CE
:080FB80090E0DF91CF91089554
:100FC000CF93DF939B01482FA82FCB010E96A11D35
:100FD000FC015A2F0E94770A672B19F0CCE0D0E071
:100FE00002C0C0E0D0E0A42FC9010696A11DFC01FB
:100FF0005A2F0E94770A6C0F7D1F54E6569FC0013E
:10100000579F900D1124285F3F4F4F4FF901542FE8
:0E1010000E94770A860F971FDF91CF910895F7
:10101E0087B3816087BB87B3826087BB87B38460E9
:10102E0087BB80E190E00E94170A60E080E30E9497
:10103E00A10985E090E00E94170A60E080E30E941B
:10104E00A10981E090E00E94170A60E08CE30E9403
:10105E00530A60E08CE00E94530A60E086E00E9432
:0C106E00530A60E081E00E94530A0895DC
:10107A0001978E30910500F5865D9F4FFC010C9417
:10108A007F0A80E090E0089588E090E0089589E082
:10109A0090E0089584E090E0089585E090E0089556
:1010AA0086E090E0089581E090E0089582E090E083
:1010BA00089583E090E008958AE090E0089587E03B
:0410CA0090E0089515
:1010CE000F931F93CF93DF9303E010E018C0BE0180
:1010DE00C8010E94AC07892B49F0C801880F991FDF
:1010EE00880F991F8C0F9D1F01960DC0219602C06F
:1010FE00C0E0D0E0C430D10554F3015011091123E2
:10110E00BCF780E090E0DF91CF911F910F91089591
:10111E009B01482FA82FCB010296A11DFC015A2F2F
:10112E000E94770AFB013197EC30F10580F4E85C00
:10113E00FF4F0C947F0A8FE190E00895F901542F30
:10114E000E94770A672B49F48DE190E0089580E0C4
:10115E0090E008958EE190E008958CE190E008957E
:10116E00AFE0B0E0EDEBF8E00C9428090E891F8992
:10117E0086E08D831A8309838FEF9FE79F838E838B
:10118E009E01255E3F4F488D598D6A8DCE01019689
:10119E000E949800E885F985E00FF11F10822F96C6
:0611AE00E4E00C947A0954
:1011B400FC0182859385CC9739F4808591850196CD
:1011C400918780871386128680859185CC9739F420
:1011D40086819781019697838683118610868681FE
:1011E40097810D9721F481E090E097838683089599
:1011F400FC018CE090E0938382838FE190E09583FF
:10120400848385EE97E0918380838BE090E09783DD
:1012140086838BE390E09187808787E390E09387D0
:1012240082871586148681E090E0978786870895E3
:101234002F923F924F925F926F927F928F929F92E2
:10124400AF92BF92CF92DF92EF92FF920F931F93D0
:10125400CF93DF93CDB7DEB7CA1BDB0B0FB6F89481
:08126400DEBF0FBECDBF0994EF
:10126C00CF92DF92EF92A82FCB0105C061E00E94D4
:10127C00530AAE2DC6016C01EA2E2FEFC21AD20A08
:10128C00E20AFC018491A7FD80818111EFCFEF90E0
:06129C00DF90CF900895E1
:1012A200CF92DF92EF926B01E82EA82FCB0141156E
:1012B200510531F48C199D09EF90DF90CF9008957C
:1012C200FC012491A7FD20812223A1F30196A11DF7
:0612D20041505109ECCF70
:1012D8002A88398848885F846E847D848C849B84BE
:1012E800AA84B984C884DF80EE80FD800C811B81CC
:1012F800AA81B981CE0FD11D0FB6F894DEBF0FBEFB
:06130800CDBFED010895C8
:10130E00882321F088B3816088BB03C088B38E7FA9
:10131E0088BB88B3826088BB11BA80B388B38460FF
:10132E0088BB00000000000011BA80B398B39B7F09
:04133E0098BB0895BB
:10134200662321F098B3916098BB03C098B39E7F47
:1013520098BB98B39D7F98BB82BB8FEF81BB88B34C
:10136200846088BB00000000000088B38B7F88BBCC
:021372000895DC
:10137400CF92DF92EF92DC016A01E62E280F391F2B
:10138400A217B30751F0F6014491E7FC40814D9355
:101394004FEFC41AD40AE40AF3CFEF90DF90CF9052
:0213A4000895AA
:1013A600CF93DF93C62F98E2899FC00D112460E08A
:1013B60082E00E94530A05C060E084E10E94530A5D
:1013C600CD2FDFEFDC0FC111F7CFDF91CF9108955D
:1013D6009C0123703327232B41F08D30910541F07A
:1013E6000F9749F480E090E0089580E090E008953A
:0C13F60080E090E0089581E090E0089510
:10140200FC0186EE97E09183808381E090E09383F4
:1014120082839583848397838683118610861386BD
:0C1422001286158614861786168608951B
:10142E0023E023BF0AC083E882BF88B7816088BFEC
:10143E00A89508B600FEFDCFC9019C0121503109C7
:08144E00892B89F713BE0895F4
:1014560097FB072E16F4009407D077FD09D00E945B
:101466003F0A07FC05D03EF4909581959F4F08955D
:08147600709561957F4F089508
:10147E00AA1BBB1B51E107C0AA1FBB1FA617B707AC
:10148E0010F0A61BB70B881F991F5A95A9F78095C8
:08149E009095BC01CD010895F9
:1014A600CF93DF93C82FD62F80E00E948709882329
:1014B600DCF36D2F8C2F0E94A109DF91CF91089547
:1014C600FC014485558521E030E0241B350B35872A
:0414D60024870895CA
:1014DA00FC014685578521E030E0241B350B378710
:0414EA0026870895B4
:1014EE0057FD03C0659175910895619171910895AD
:0C14FE00EE0FFF1F0590F491E02D099403
:0A150A0060E081E00E94530A08959A
:061514008FE081BD089587
:04151A000C9400002D
:00000001FF
